:100000000000012089030000710300007303000059
:100010007503000077030000790300000000000072
:100020000000000000000000000000007B03000052
:100030007D030000000000007F030000810300003A
:100040008303000083030000952A0000830300005F
:100050008303000083030000830300008303000088
:100060008303000083030000830300008303000078
:100070008303000083030000830300008303000068
:100080008303000083030000830300008303000058
:100090008303000083030000830300008303000048
:1000A0008303000083030000830300008303000038
:1000B0008303000083030000000000000000000034
:1000C0008303000083030000830300008303000018
:1000D000830300008303000083030000000000008E
:1000E0000000000000000000000000000000000010
:1000F0000000000000000000000000000000000000
:1001000000000000000000000000000000000000EF
:1001100000000000000000000000000000000000DF
:1001200000000000000000000000000000000000CF
:1001300000000000000000000000000000000000BF
:1001400000000000000000000000000000000000AF
:10015000000000000000000000000000000000009F
:10016000000000000000000000000000000000008F
:10017000000000000000000000000000000000007F
:10018000000000000000000000000000000000006F
:10019000000000000000000000000000000000005F
:1001A000000000000000000000000000000000004F
:1001B000000000000000000000000000000000003F
:1001C000000000000000000000000000000000002F
:1001D000000000000000000000000000000000001F
:1001E000000000000000000000000000000000000F
:1001F00000000000000000000000000000000000FF
:100200003A493B480A1A02D0072291438D463949A0
:1002100039480A1A06D00722914381F3098802223D
:1002200082F3148835483649364A00F041F836489A
:100230003649374A00F03CF836483749374A00F02B
:1002400037F837483749384A00F032F837483849E4
:10025000384A00F02DF838483849394A00F028F873
:1002600038483949394A00F023F8394839490022D9
:1002700000F036F838483949002200F031F83848A3
:100280003849091A04F030FF374A90472548264973
:10029000884205D00268043003B4904703BCF7E7F6
:1002A00000208646EC4600200021304A9047FEE7B9
:1002B000884214D0521A12D003460B43134303242E
:1002C000234206D1036804300B600431043AF9D1AB
:1002D0007047037801300B700131013AF9D1704752
:1002E000884202D002700130FAE770470000012016
:1002F00000E000200000012000000120A45E0000BA
:100300000000002074000020E8030000E803000063
:1003100088510000A45E00000000002000000020C2
:10032000DC510000DC510000DC510000DC51000019
:10033000DC510000DC510000DC510000DC51000009
:10034000A15E0000185F000074000020740000200F
:1003500074000020A4090020A4090020A4090020A2
:10036000A4090020A4290020B10300009D4600003C
:10037000FEE7FEE7FEE7FEE7FEE7FEE7FEE7FEE755
:10038000FEE7FEE7704700BF1048804710484FF077
:100390000701884385460F4880470F48016841F4AC
:1003A00070010160BFF34F8FBFF36F8FFFF728BF5E
:1003B0000A480B490B4A884207D0521A05D00378E5
:1003C00001300B700131013AF9D17047850300000B
:1003D00000000120454A000088ED00E0DC510000EB
:0803E0000000002000000020D5
:1003E80000B585B00190019B002B0AD0074B43F064
:1003F80001030393019B9B010293039B0298984777
:1004080000E000BF05B05DF804FB00BFF05100003C
:1004180000B583B00190019B002B0AD04FF47A708D
:10042800FFF7DEFF019B013B0193019B002BF5D1F8
:1004380000E000BF03B05DF804FB08B504F0D8FA8B
:1004480000BF08BD00B589B0039002910192019BDD
:10045800002B33D00023079303230693029A079BAC
:100468001344019A1946002004F072FA0590079A7D
:10047800059B13440793019A059BD31A0193059B87
:10048800002B13D10F4B1B7883F00103DBB2002B39
:1004980013D10120FFF7BCFF069B013B0693069B87
:1004A800002B03D1074B00221A7007E0054B0122ED
:1004B8001A70019B002BD1D100E000BF00BF09B02A
:1004C8005DF804FB7400002000B585B0039002912C
:1004D800054B00934023054A0299039800F012F84F
:1004E80000BF05B05DF804FB4D0400007800002053
:1004F80082B0019000BF02B0704782B0019000BF87
:1005080002B0704700B5A1B0059004910392029320
:10051800049802F0ABF8039B1593029B16930023F3
:10052800179300238DF8603000231993229B1A93A8
:1005380000231F930FA91F9B0822049802F070F94B
:1005480008231F93119B1293BDF84030ADF84C302F
:10055800BDF84230ADF84E3000238DF851309DF88B
:100568003C3003F00303DBB2012B26D10F9BC3F30E
:1005780095231C939DF83C30C3F3C203DBB28DF87E
:100588005030BDF83C30C3F38313DBB21B931B9B85
:100598009A0009A91F9B049802F042F91B9B9B0033
:1005A8001F9A13441F9312AA09A915AB0093134667
:1005B8001B9A1C9800F0EEFF2FE09DF83C3003F0EA
:1005C8000303DBB2022B28D1BDF83E30C3F38913F5
:1005D8009BB21E939DF83C30C3F3C203DBB28DF887
:1005E80050301E9B082B28BF08231D9307A91F9B6B
:1005F8001D9A049802F014F91F9A1D9B13441F9327
:100608001E9A1D9BD31A1E9315AB12AA07A81D99F3
:1006180001F062F81E9B002BE3D1049802F035F834
:1006280000BF21B05DF804FB00B583B00190019BC9
:100638001B781A460C4B9B5C002B05D0019B04339E
:10064800184603F089FC0BE0019B1B781A46064B01
:100658009B5C002B04D1019B0C33184602F058FE1A
:1006680000BF03B05DF804FBB406002000B587B0F6
:100678000390029113468DF8073000230593039BDE
:100688001B781A46114B9B5C002B09D0039B043343
:100698009DF807200299184603F08CFC05900FE09E
:1006A800039B1B781A46094B9B5C002B08D1039BC4
:1006B8000C339DF807200299184602F09FFE05901A
:1006C800059B184607B05DF804FB00BFB406002080
:1006D80082B001900091034B01221A7000BF02B052
:1006E800704700BFF800002030B58DB003468DF884
:1006F80007301A4B02AC1D460FCD0FC495E80F000A
:1007080084E80F00062302934FF0FF3303934FF062
:10071800FF3304934FF0FF3305934FF0EB730893C7
:100728009DF80730002B01D00D4A00E0002202ABF3
:1007380019460C4802F04AF90B900B9B0A930A9B46
:10074800002B04D0084A43210A9801F08BF8074A85
:100758009DF80730137000BF0DB030BD3052000057
:10076800D906000000000020F8510000F900002020
:1007780000B583B001238DF807309DF8073018467F
:10078800FFF7B2FF00BF03B05DF804FB00B589B006
:10079800039002910192019B8DF81F30124B0022A9
:1007A8001A709DF81F301A4602991048FFF75EFF2D
:1007B8000690069B0593059B002B04D00C4A5321F9
:1007C800059801F04FF800BF0A4B1B78002B07D0A3
:1007D800054B1B78DBB283F00103DBB2002BF3D1AE
:1007E80000BF09B05DF804FBF800002000000020FD
:1007F800F8510000F900002000B585B0039002917F
:10080800054B00934023054A02990398FFF77AFEA7
:1008180000BF05B05DF804FB95070000B800002094
:1008280082B0019000BF02B07047000000B583B0ED
:1008380001900548FFF7F8FE0020FFF755FF00BFBD
:1008480003B05DF804FB00BF0000002082B00190F7
:10085800019BDB6801225A7100BF02B0704700009B
:1008680000B583B04FF0FF330193FFF7E6FD042195
:10087800114800F0A9FD0190019B002B03DA0F49F4
:10088800412001F0E2F80C48FFF7E0FFFFF770FFA6
:1008980004210B4800F098FD0190019B002B03DA1E
:1008A8000649482001F0D1F80548FFF7CFFF00BFFF
:1008B80003B05DF804FB00BFA8510000805200009F
:1008C800B851000000B583B001900091019B1B68EE
:1008D8001B6800990198984700BF03B05DF804FBB6
:1008E80000B583B00190019B1B685B68019898472D
:1008F80000BF03B05DF804FB00B583B00190019B15
:100908001B689B680198984700BF03B05DF804FB1B
:1009180082B001900B468DF80330019BDB689DF88F
:1009280003201A7100BF02B0704782B00190019B8A
:10093800DB681B79184602B0704782B00190019BB2
:10094800DB6801225A7100BF02B0704782B0019083
:10095800019BDB685B79184602B0704700B585B02B
:1009680001900091154BFF229A60144B00221A60E7
:10097800124B00225A60114B0022C3F818240F4B67
:100988000022C3F814240D4B002283F820240C48BD
:1009980001F0D0FD0390039B002B01D0039B08E0DE
:1009A800084801F05DFF084A084BD31ADB08029398
:1009B8000023184605B05DF804FB00BF6402002060
:1009C800C8510000BC520000A85100008851000026
:1009D800024A034BD31ADB0818467047A851000097
:1009E8008851000000B587B001900B468DF80330A0
:1009F8009DF80330002B1FD0FFF7EAFF0490002377
:100A0800059313E0059B9B000E4A13440393039B35
:100A18001B881A46019B1B689A4204D1019B059AC0
:100A28001A60002309E0059B01330593059A049B8E
:100A38009A42E7D3052300E00023184607B05DF883
:100A480004FB00BF0000002000B585B001900B46F4
:100A58008DF803309DF8032001AB11461846FFF7C7
:100A6800C1FF0346002B07D1019BDB00054A134455
:100A78000393039B1B6800E00023184605B05DF84C
:100A880004FB00BF8851000084B001900B468DF82C
:100A98000330019BDB00174A134402939DF803308F
:100AA800013B032B1CD801A252F823F0C50A000011
:100AB800CD0A0000D50A0000DF0A000002238DF8E5
:100AC8000F3011E004238DF80F300DE0029B1B79E5
:100AD8008DF80F3008E0029B5B798DF80F3003E04A
:100AE80000238DF80F3000BF9DF80F30184604B072
:100AF800704700BF8851000084B001900091002326
:100B08008DF80F30019B1B7803F00403DBB2002B38
:100B180024D0019B1B78C3F30103DBB2012B02D065
:100B2800022B0CD017E0009B1B68019A1288C2F3B5
:100B38008312D2B213449A1C009B1A600BE0009BEC
:100B48001B68019A5288C2F3891292B213449A1C04
:100B5800009B1A6000BF01238DF80F309DF80F30FD
:100B6800184604B07047000000B58BB00023ADF8FC
:100B780026303E4800F0F7FF3D4800F0F4FF3D4BBB
:100B88005B6804933B4B9B680693049A069B13404F
:100B980002339B00374A13440433089304AB1946C5
:100BA8000898FFF7A9FF0346002B09D0049A069B73
:100BB800134002339B002F4A134404330893EDE794
:100BC80000BF0023079311E0049B5A1C0492069A65
:100BD8001340079A920001A90A44264902339B0050
:100BE8000B445B681360079B01330793079B012B3A
:100BF800EAD99DF80430C3F30103DBB2012B10D00E
:100C0800022B1CD1BDF80A30ADF82630BDF80630ED
:100C1800C3F389139BB203339A08049B13440493C8
:100C280013E0BDF80A30ADF82630BDF80430C3F340
:100C38008313DBB21A46049B1344049305E00E4960
:100C48004FF4BF7000F001FF00BF094800F097FFA4
:100C58000590059B002B02D0049B064A5360BDF803
:100C6800263018460BB05DF804FB00BF7C06002058
:100C78007806002064020020CC52000000B585B040
:100C88000021074800F0F8FE0390039B0293029BA3
:100C980083F310030193019B184605B05DF804FB2C
:100CA8008006002000B589B003900291019200935C
:100CB800039B1B0C0793FFF7E1FF0690FFF788FEE5
:100CC8000246079B934204D3214940F2A31000F047
:100CD800BCFE069B1904009B5A1C0A9B1340079AEA
:100CE8000A431C4902339B000B445A60009A0A9B32
:100CF800134002339B00174A134404330593039BA4
:100D080003F00703D9B2059A137861F3C50313708A
:100D1800019B03F00F03D9B2059A138861F3891375
:100D28001380029BC3F31501059A136861F39F238F
:100D38001360059A1378012161F301031370059A72
:100D480013786FF38203137000BF09B05DF804FBDA
:100D5800CC5200006402002000B58BB003900291D1
:100D680013468DF80730039B0233089301238DF84F
:100D78001F30002000F022FE3E4B1A68029B1A60CA
:100D88003C4B9A683B4B59683A4B1B68CB1A134447
:100D98000133099314E00121374800F0B4FEFFF74E
:100DA800E3FE05900599344800F0ADFE314B9A6892
:100DB800304B59682F4B1B68CB1A134401330993E6
:100DC800089A099B9A42E6D89DF81F30002B48D014
:100DD800002304939DF80730002B17D09DF810309E
:100DE800012262F301038DF810309DF8103043F0B2
:100DF80004038DF81030039B03F00F03DAB2BDF83B
:100E0800103062F38913ADF8103016E09DF81030F9
:100E1800022262F301038DF810309DF8103043F080
:100E280004038DF81030039BC3F309039AB2BDF88D
:100E3800123062F38F13ADF812300E4B1A680D4B57
:100E48009B68134002339B000A4A134404330693F9
:100E5800049A069B1A60074B1A68089B1344054AB4
:100E68001360002000F0BEFD9DF81F3018460BB03F
:100E78005DF804FB640200208006002000B58BB0FA
:100E880005900491039202931F4B9B68079306AB4E
:100E9800012219460298FFF75FFF0346002B24D072
:100EA800069B023309930023089311E0089B9B00DB
:100EB800039A1A44099B591C099107990B40126817
:100EC800114902339B000B445A60089B0133089375
:100ED800089A029B9A42E9D3069A079B0093134605
:100EE800029A04990598FFF7DDFE074B93F8203422
:100EF800002B04D000F066F80346002BFAD100BF9F
:100F08000BB05DF804FB00BF6402002000B583B09D
:100F1800019000910023002200990198FFF7AEFF8D
:100F280000BF03B05DF804FB00B587B003900291E1
:100F38000192019B059305AA012302990398FFF7E3
:100F48009DFF00BF07B05DF804FB00B587B00390B4
:100F5800029101920093019B0493009B059304AABC
:100F6800022302990398FFF789FF00BF07B05DF8D5
:100F780004FB00B58BB00390029101920093019B92
:100F88000593009B06930C9B07930D9B08930E9B60
:100F9800099305AA052302990398FFF76FFF00BF7D
:100FA8000BB05DF804FB0000054B5A68044B1B6846
:100FB8009A420CBF01230023DBB21846704700BFDA
:100FC8006402002000B599B0FFF7EEFF0346002B3E
:100FD80001D00023B7E19B4B0022C3F81824BFF3CC
:100FE8004F8F00BF974B5B680493964B9B68109399
:100FF800049A109B134002339B00924A1344043313
:101008001193002317930023169300230F9304AB27
:1010180019461198FFF770FD0346002B19D0894B2C
:10102800D3F81834002B14D1864B1A68049B9A42C3
:1010380005D8844B1B68834A5360002383E1049AD4
:10104800109B134002339B007E4A134404331193D0
:10105800DDE70023159311E0049B5A1C0492109AB3
:101068001340159A920001A90A44764902339B005D
:101078000B445B681360159B01331593159B012B7B
:10108800EAD99DF8043003F00303DBB2022B40F0E9
:101098009C80BDF80630C3F389139BB20D93BDF84D
:1010A8000630C3F389139BB2502B28BF50239BB241
:1010B8000C930C9BC3F309039AB2BDF8063062F394
:1010C8008F13ADF806300C9B08330B939DF8043052
:1010D800C3F3C203DBB20F930B995B4801F035FAF7
:1010E8001790179B002B00F0D180179801F0BEFADB
:1010F80001A9169B0822179801F074FB169B083368
:101108001693049BDA43109B134001339B000A9308
:101118000C9A0A9B9A4242D90A9B002B08D0049A3F
:10112800109B134002339B00464A1344043300E0EB
:10113800464B08930A9B002B02D00A9BDBB201E0C6
:101148000C9BDBB28DF81F300A9B002B01D03F4B64
:1011580000E0002306930A9B002B06D00C9BDAB212
:101168000A9BDBB2D31ADBB200E000238DF81730FC
:101178009DF81F20169B0899179801F033FB9DF8DE
:101188001F30169A13441693069B002B16D09DF811
:101198001720169B0699179801F024FB0EE0049A75
:1011A800109B134002339B00264A134404330993CF
:1011B800169B0C9A0999179801F014FB0D9B0333A1
:1011C8009A08049B1344049360E09DF8043003F0EC
:1011D8000303DBB2012B59D1BDF80430C3F38313E9
:1011E800DBB2062B28BF0623DAB2BDF8043062F35F
:1011F8008913ADF80430BDF80430C3F38313DBB2B0
:1012080002330E939DF80430C3F3C203DBB20F938D
:101218000E9B9B0019460C4801F097F91790179BF5
:10122800002B33D0179801F021FA01A9169B082248
:10123800179801F0D7FA169B0833169300231593D5
:101248001BE000BF64020020C851000070020020AB
:10125800049B5A1C0492109A134002339B003C4A88
:101268001344191D169B0422179801F0BBFA169B0C
:1012780004331693159B01331593BDF80430C3F35B
:101288008313DBB21A46159B9342E1D3179B002BBD
:1012980039D02F4BD3F8103414932D4BD3F818347E
:1012A800002B1BD0179801F0F0F946E000238DF8C9
:1012B8004F301498FFF74AFB0346002B02D0012356
:1012C8008DF84F309DF84F30002B03D017991498A4
:1012D800FFF7F8FA149BDB681B681493149B002B28
:1012E800E4D1179801F0D1F9002000F067FB184B02
:1012F800D3F81834002B02D1049B154A5360002000
:1013080000F070FB19E0124BD3F81034129306E08A
:101318001298FFF7F1FA129BDB681B681293129B75
:10132800002BF5D10B4A0C4BD31ADB081B0443F0F6
:1013380002030A491846FFF7E9FDFFF735FE0346A1
:1013480083F00103DBB2184619B05DF804FB00BF57
:1013580064020020A05100008851000000530000E2
:1013680000B585B00023039323E0164BD3F810345F
:10137800029301238DF807300FE00298FFF7D5FAA2
:1013880003461A46039B934203D100238DF8073086
:1013980006E0029BDB681B680293029B002BECD1E2
:1013A8009DF80730002B01D0039B07E0039B013316
:1013B8000393039B092BD8DD4FF0FF33184605B084
:1013C8005DF804FB6402002000B585B001900B466F
:1013D8008DF80330FFF7C4FF0390039BB3F1FF3F81
:1013E80001D1039B22E0039BDBB219460198FFF76A
:1013F8008FFA104BD3F81034002B08D10D4A019BFB
:10140800C2F81034019BDB6800221A600DE0094B1A
:10141800D3F81034DA68019BDB6812681A60054B50
:10142800D3F81034DB68019A1A60039B184605B09C
:101438005DF804FB6402002000B583B00D4BD3F8BF
:10144800103401930B4B012283F8202409E0019802
:10145800FFF773FA0198FFF743FA019BDB681B68F3
:101468000193019B002BF2D100BF00BF03B05DF8D0
:1014780004FB00BF6402002082B00190009100BF0D
:1014880002B0704710B584B003900291039BDB88CB
:10149800002B0AD0039BDB881A461F4B0093134688
:1014A8001E4A1F49029800F099FC039B1B7A052BE2
:1014B8002ED0039B5B7A002B12D0039B9B881A4685
:1014C800039B1B7A19461046FFF7DEFA03461A46B5
:1014D800144B53F822301A461349029800F07EFC48
:1014E800039B1B6819460298FFF7C6FF039B1B7AEC
:1014F8001A460E4B53F82240039B9B88002118463E
:10150800FFF7A2FA034622460949029800F066FC52
:1015180000BF04B010BD00BF3453000044530000A6
:101528007C53000038000020945300002400002061
:101538009853000000B585B00390029113468DF8CA
:101548000730039B1B7A052B0FD0039B5B7A002B7C
:1015580006D00D4B1B681A460C49029800F03EFC59
:101568000B49029800F03AFC07E09DF80730002B81
:1015780003D00749029800F031FC029800F00CFCF7
:1015880000BF05B05DF804FB38000020945300004C
:10159800A453000030B58BB00790069105920493D0
:1015A8000E9B1B7B8DF827300E9B00221A730E9919
:1015B8000498FFF767FF059B062B7FD801A252F816
:1015C80023F000BFE9150000F31500000316000022
:1015D80017160000351600005D1600008D16000075
:1015E80007990E9800F0FAFB69E0069B1B681A46FB
:1015F80007990E9800F0F2FB61E0069B1A68069BBB
:1016080004331B6807990E9800F0E8FB57E0069B27
:101618001A68069B04331968069B08331B680093F5
:101628000B4607990E9800F0D9FB48E0069B19680D
:10163800069B04331868069B08331B68069A0C320D
:1016480012680192009303460A4607990E9800F023
:10165800C5FB34E0069B1868069B04331C68069B90
:1016680008331B68069A0C3212680699103109680B
:101678000291019200932346024607990E9800F0C2
:10168800ADFB1CE0069B1C68069B04331D68069B8B
:1016980008331B68069A0C321268069910310968DB
:1016A80006981430006803900291019200932B462B
:1016B800224607990E9800F091FB00E000BF002237
:1016C8000E990498FFF736FF0E9B9DF827201A7392
:1016D80000BF0BB030BD00BF00B587B003900291CA
:1016E80001920093029B082B60D8009B1B7B8DF80E
:1016F8001330009B00221A7300990198FFF7C2FE6D
:101708000023059314E0059A029B9A4209D2039A92
:10171800059B13441B781A462649009800F05EFB87
:1017280003E02549009800F059FB059B0133059318
:10173800059B072BE7D92149009800F04FFB0023B0
:10174800059326E0059A029B9A421BD2039A059BB1
:1017580013441B788DF812309DF812307E2B0AD86E
:101768009DF81230184603F080FC0346002B02D087
:101778009DF8123000E02E231A461149009800F017
:101788002DFB03E00F49009800F028FB059B01336F
:101798000593059B072BD5D9012200990198FFF7DE
:1017A800C9FE009B9DF813201A7300E000BF07B024
:1017B8005DF804FBA8530000B0530000B4530000C8
:1017C800B8530000BC53000086B003900291019208
:1017D80001238DF817309DF81730214A039B1360B9
:1017E8001F4A029B53601E4A019B9360039B44F26D
:1017F8000102934213D0039B44F20202934221D187
:10180800019B174AD360164BDB681B881A46144B9A
:101818009A61134BDB685B68114AD36112E0019B44
:101828000F4A13610E4B1B699B680D4A53610C4BA1
:101838001B691B680A4A9361094B1B695B68084A64
:10184800D36100BF72B600BF00BF9DF81730DBB28E
:10185800002BFAD162B600BF00BF06B0704700BFC8
:101868008806002000B583B002900091019244F2EE
:10187800010071466A4600F003F803B000BD00BFDE
:1018880030B58BB007900691059272B600BFFFF78E
:10189800D3FDFFF797FB0346002BFAD1079B44F2D1
:1018A8000102934216D0079B44F2020293423ED1B2
:1018B800059B09932C4A2D4BD31ADB081B0443F0D4
:1018C8000100099B5B681A46099B1B882849FFF79A
:1018D8003CFB39E0059B0893234A244BD31ADB08C9
:1018E8001B0443F00104089B9D68089B9B681846ED
:1018F80000F0D4FF03461846089B5B681946089B0E
:101908001B68069A02920193009103462A461949D8
:101918002046FFF72EFB144A144BD31ADB081B048E
:1019280043F0010314491846FFF7F0FA0CE00E4A99
:101938000E4BD31ADB081B0443F00103069A0F4928
:101948001846FFF7F1FA00BF0D4B1B6803F00103BF
:10195800002B00D000BE059A06990798FFF734FFC0
:1019680000BF0BB030BD00BFA0510000885100007F
:10197800C0530000DC530000045400001854000059
:10198800F0ED00E072B600BF034B1B680133024A5A
:10199800136000BF704700BFA8060020064B1B68F5
:1019A800013B054A1360044B1B68002B01D162B64A
:1019B80000BF00BF704700BFA806002000B583B075
:1019C800019000F025F80346012B03D00449432079
:1019D80000F03BF8FFF7D6FF00BF03B05DF804FB4B
:1019E8003054000000B583B003468DF8073000F08E
:1019F8000FF80346012B03D00449512000F025F8C5
:101A0800FFF7CCFF00BF03B05DF804FB30540000C3
:101A180084B0EFF305830193019BC3F30803039399
:101A2800039B002B0DD1EFF314830093009B0293CB
:101A3800029B03F00103002B0CBF01230023DBB240
:101A480000E00123184604B0704700B585B003468E
:101A58000091ADF80630BDF80630ADF80830009BAF
:101A6800039302AB1A46002144F20200FFF708FF75
:101A780000BF05B05DF804FB10B487B00190009179
:101A8800019B009A53E8004F104643E8000191F08B
:101A9800000FF7D1059404900391059B184607B0F1
:101AA8005DF8044B704710B487B001900091019B1A
:101AB800009A53E8004F44EA020043E8000191F01D
:101AC800000FF6D1059404900391049B184607B0C3
:101AD8005DF8044B704710B487B001900091019BEA
:101AE800009A53E8004F04EA020043E8000191F02D
:101AF800000FF6D1059404900391059B184607B092
:101B08005DF8044B704710B487B001900091019BB9
:101B1800009A53E8004F04EB020043E8000191F0FB
:101B2800000FF6D1059404900391049B184607B062
:101B38005DF8044B704710B487B001900091019B89
:101B4800009A53E8004FA4EB020043E8000191F02B
:101B5800000FF6D1059404900391049B184607B032
:101B68005DF8044B704700B583B0019001210198DE
:101B7800FFF799FF0346184603B05DF804FB00B56C
:101B880083B0019000210198FFF7A5FF034618468E
:101B980003B05DF804FB000000B583B001900B466C
:101BA8008DF80330019B002B03D10849E820FFF78B
:101BB8004CFF019BDA689DF803300199098A01FB03
:101BC80003F31344184603B05DF804FB64540000A3
:101BD80000B583B001900091019B002B03D1084907
:101BE800F520FFF732FF009B019AD2689B1A019AF1
:101BF800128AB3FBF2F3DBB2184603B05DF804FBBC
:101C08006454000000B585B00190019B002B01D100
:101C18000E234CE0019B1B68002B03D12649FF20B3
:101C2800FFF713FF019B5B68002B04D122494FF497
:101C38008070FFF70AFF019B9B68002B04D11E49A7
:101C480040F20110FFF701FF019BDB68002B04D174
:101C580019494FF48170FFF7F8FE019B1B8A002B8E
:101C680004D1154940F20310FFF7EFFE019B9A6873
:101C7800019B5B68D31A8DF80F30019B1B68019A92
:101C880052681A6007E0019B1A681368591C1160B2
:101C98009DF80F201A709DF80F305A1E8DF80F20EE
:101CA800002BF0D1019B1B6800221A7100231846F3
:101CB80005B05DF804FB00BF6454000000B585B0B2
:101CC8000190019B002B04D11C494FF49270FFF73F
:101CD800BCFE002303930020FFF770FE019B1B68E6
:101CE8001A68019B5B689A421FD9019B1B681A6896
:101CF800013A1A601B681B7819460198FFF74CFFD8
:101D08000390019B9A68019B1B681B68D31A8DF886
:101D18000B30019B1B681B799DF80B209A4204D954
:101D2800019B1B689DF80B201A710020FFF75AFED3
:101D3800039B184605B05DF804FB00BF645400001F
:101D480010B584B001900091019B002B04D111497A
:101D580040F24710FFF779FE009B002B04D10D4994
:101D68004FF4A470FFF771FE009B03930020FFF768
:101D780025FE019B1B681C68621C1A600399019868
:101D8800FFF726FF034623700020FFF72BFE00BF56
:101D980004B010BD6454000000B583B00190019BED
:101DA800002B03D10C493120FFF74FFE019B9B68A4
:101DB800002B0CD0019B5B69019A1069019A11688C
:101DC800019A92689847019B00229A6000E000BF40
:101DD80003B05DF804FB00BF905400000EB400B5DA
:101DE80084B00190019B002B03D118494220FFF7D2
:101DF8002CFE019B5B69002B03D114494320FFF79C
:101E080024FE019B1B68002B03D110494420FFF7D7
:101E18001CFE019B5B68002B03D10C494520FFF792
:101E280014FE059B002B0AD00023039306AB0393F3
:101E380003AB1A460599019800F0B8F900E000BF15
:101E480004B05DF804EB03B0704700BF9054000085
:101E580000B583B001900B468DF803309DF8033030
:101E68000A2B03D10D210198FFF7F2FF019B1A6895
:101E7800019B9B68581C0199886013449DF80320B6
:101E88001A70019B9A68019B5B689A4202D3019879
:101E9800FFF782FF00BF03B05DF804FB00B587B011
:101EA800039002910192009300230593009B03F095
:101EB8000103002B24D00BE0029B01330293059B06
:101EC800013305939DF8133019460398FFF7C0FFB7
:101ED800029B1B788DF813309DF81330002BEBD143
:101EE80006E0019B013B019320210398FFF7B0FF17
:101EF800019A059B9A422ED9019B002BF1D12AE029
:101F0800029B002B0BD0029803F0F6F8059006E030
:101F1800019B013B019320210398FFF799FF019A48
:101F2800059B9A420FD9019B002BF1D10BE0029B34
:101F380001330293059B013305939DF8133019462D
:101F48000398FFF785FF029B1B788DF813309DF8E7
:101F58001330002BEBD100BF07B05DF804FB000085
:101F680000B589B00390029101920093029B0793F8
:101F78000123069307E0079A019BB2FBF3F307934B
:101F8800069B01330693079A019B9A42F3D2009A63
:101F9800069B9A4201D9009B06930B9B03F0010311
:101FA800002B22D10A9B002B1FD00B9B03F00203AE
:101FB800002B06D0009B002B03D130238DF817305F
:101FC80002E020238DF8173008E00A9B013B0A93B2
:101FD8009DF8173019460398FFF73AFF0A9B002B24
:101FE80003D0069A0A9B9A42EFD301230793009BDA
:101FF800012B03D9009B013B009309E0029A079B40
:10200800B2FBF3F30493049A019B9A4200D205E0D1
:10201800079B019A02FB03F30793E8E7029A079BE1
:10202800B2FBF3F30493049B079A02FB03F3029AAF
:10203800D31A0293154A049B13441B781946039834
:10204800FFF706FF079A019BB2FBF3F30793079B81
:10205800002BE3D10B9B03F00103002B11D00A9B4B
:10206800002B0ED006E00A9B013B0A93202103981F
:10207800FFF7EEFE0A9B002B03D0069A0A9B9A42B2
:10208800F1D300BF09B05DF804FB00BFE0540000C5
:1020980000B589B00590049103920293049B002B2C
:1020A800B8BF5B4206930123079307E0039B069A98
:1020B80092FBF3F30693079B01330793039B069A5E
:1020C8009A42F3DA029A079B9A4201D9029B079334
:1020D8000A9B002B0AD0049B002B04DB0B9B03F00C
:1020E8000403002B02D00A9B013B0A930B9B03F0CD
:1020F8000203002B02D0029B002B16D00B9B03F08F
:102108000103002B11D10A9B002B0ED006E00A9B7D
:10211800013B0A9320210598FFF79AFE0A9B002BA2
:1021280003D0079A0A9B9A42F1D3049B002B07DA43
:10213800049B5B4204932D210598FFF789FE08E074
:102148000B9B03F00403002B03D02B210598FFF70A
:102158007FFE0B9B03F00203002B19D00B9B03F0AF
:102168000103002B14D1029B002B11D10A9B002BD9
:102178000ED006E00A9B013B0A9330210598FFF731
:1021880067FE0A9B002B03D0079A0A9B9A42F1D359
:1021980004990B9B01930A9B0093029B039A059851
:1021A800FFF7DEFE00BF09B05DF804FB00B58FB095
:1021B800059004910392059B002B04D1AD494FF47F
:1021C800A270FFF742FC059B5B69002B04D1A9496B
:1021D8004FF4A370FFF739FC059B1B68002B04D153
:1021E800A44940F24710FFF730FC059B5B68002BC1
:1021F80004D1A0494FF4A470FFF727FC049B002BDF
:1022080000F09381049B1B788DF83730049B0133D1
:1022180004939DF83730002B00F07E819DF837300D
:10222800252B40F06D8100230A9301230C93049B16
:102238001B788DF837309DF83730302B0DD0302B88
:102248001BDC2B2B11D02D2B17D10A9B43F001033C
:102258000A93049B0133049312E00A9B43F00203A0
:102268000A93049B013304930AE00A9B43F0040396
:102278000A93049B0133049302E000230C9300BFEC
:102288000C9B002BD3D1002309939DF837302A2BC0
:102298000CD1039B1B68191D039A11601B68099ACE
:1022A80013440993049B013304931AE0049B1B789D
:1022B8008DF837309DF837302F2B12D99DF83730ED
:1022C800392B0ED8049B01330493099A13469B00BB
:1022D80013445B001A469DF837301344303B09938A
:1022E800D3E700230B93049B1B788DF837309DF8B8
:1022F80037302E2B1DD1049B01330493049B1B788C
:102308008DF837309DF837302F2B12D99DF837309C
:10231800392B0ED8049B013304930B9A13469B0068
:1023280013445B001A469DF837301344303B0B9337
:10233800E4E7049B1B788DF837309DF837306C2B19
:1023480003D09DF83730682B07D1049B01330493E1
:10235800049B1B788DF83730EFE79DF83730252B35
:1023680000F0C480252BC0F2C680782B00F3C38010
:10237800582BC0F2C080583B202B00F2BC8001A231
:1023880052F823F081240000FF240000FF240000FD
:10239800FF240000FF240000FF240000FF240000A9
:1023A800FF240000FF240000FF240000FF24000099
:1023B8001124000033240000FF240000FF24000043
:1023C800FF240000FF24000033240000FF24000045
:1023D800FF240000FF240000FF240000FF24000069
:1023E800FF240000C1240000FF240000FF24000097
:1023F800A5240000FF24000057240000FF2400004B
:10240800FF24000081240000039B1B68191D039A08
:1024180011601B680C930C9B8DF81F309DF81F30C2
:1024280019460598FFF714FD66E0039B1B68191D04
:10243800039A11601B680C930A9B0193099B0093F4
:102448000B9B0A220C990598FFF722FE54E0039B88
:102458001B68191D039A11601B680C930C990A9B41
:102468000193099B00930B9B0A220598FFF778FDBF
:1024780042E000BFB4540000039B1B68191D039A77
:1024880011601B680C930C990A9B0193099B00939C
:102498000B9B10220598FFF763FD2DE0039B1B683B
:1024A800191D039A11601B6808930A9B099A0899D9
:1024B8000598FFF7F3FC1FE0039B1B68191D039A9F
:1024C80011601B680C9330210598FFF7C1FC782137
:1024D8000598FFF7BDFC0C9900230193082300938E
:1024E800082310220598FFF73BFD05E025210598F4
:1024F800FFF7AEFC00E000BF049B0133049305E046
:102508009DF8373019460598FFF7A2FC049B1B7805
:10251800002B7FF477AE00E000BF059B1B7B002BF0
:1025280004D00598FFF738FC00E000BF0FB05DF855
:1025380004FB00BF00B583B001900198FFF762FB70
:102548000346184603B05DF804FB00B58BB0019054
:102558000091019B1B8A043B0793009A079B134435
:10256800DA1C079BB2FBF3F38DF81B300198FFF7D9
:10257800A5FB0590059B002B01D1002338E0059BA6
:1025880000221A71059B01225A71079B9AB2059B7A
:10259800DA80059B09939DF81B30013B0493099B46
:1025A800019A1A60002308931DE00198FFF786FB43
:1025B8000390039B002B0ED0059B5B790133DAB2A5
:1025C800059B5A71099B039A1A60039B019A1A602A
:1025D800039B099304E0059800F00EF8002307E038
:1025E800089B01330893089A049B9A42DDD3059B04
:1025F80018460BB05DF804FB00B58BB00190019B49
:102608000793079B5B798DF81B30019B08939DF816
:102618001B30013B05930023099305E0089B1B68C9
:102628000893099B01330993099A059B9A42F5D3AC
:10263800089B1B680493019B0893002309930BE0F4
:10264800089B1B68039308990498FFF779FB039B81
:102658000893099B013309939DF81B30099A9A4204
:10266800EED300BF00BF0BB05DF804FB00B585B02A
:102678000190019B0393039B043301211846FFF744
:1026880042FA00BF05B05DF804FB00B587B00190C1
:10269800019B0593059B043301211846FFF74BFA6C
:1026A8000346039303AB0493049B1B78002B02D1CE
:1026B8000198FFF7A1FF00BF07B05DF804FB000019
:1026C80000B591B00390029101920093039B002BF7
:1026D80003D14349B620FFF7B8F9039B0993039B3D
:1026E8000F93099BDB881A46099B5B7902FB03F36E
:1026F800043B0893009A089B9A4203D33849C420A4
:10270800FFF7A3F9099BDB880793009B1A1D079B1A
:10271800B2FBF3F30E93009B0433079AB3FBF2F278
:10272800079901FB02F29B1A0D93019B1A68009B03
:102738001344089A9A4203D2089A009BD31A01E0DC
:10274800019B1B680C93019B0C9A1A6005E00F9B78
:102758001B680F930E9B013B0E930E9B002BF6D12B
:1027680000230B93079A0D9BD31A0A930A9A0C9B82
:10277800934228BF13460A932AE0029A0B9B1344FC
:1027880006930F9A0D9B1344043305939DF8483024
:10279800002B05D00A9A0599069802F0C3FC04E0BC
:1027A8000A9A0699059802F0BDFC00230D930F9B29
:1027B8001B680F930C9A0A9BD31A0C930B9A0A9BCB
:1027C80013440B93079A0C9B934228BF13460A9312
:1027D8000C9B002BD1D100BF00BF11B05DF804FBEA
:1027E800F054000000B589B005900491039202935B
:1027F800039B079307AA00230093029B049905985B
:10280800FFF75EFF079B039A9A4203D00349F6201D
:10281800FFF71BF900BF09B05DF804FBF054000096
:1028280000B589B00590049103920293039B079326
:1028380007AA01230093029B04990598FFF740FF1C
:10284800079B039A9A4204D004494FF48070FFF71B
:10285800FCF800BF09B05DF804FB00BFF0540000AD
:1028680082B00190019B9B6800229A60019B9B6843
:1028780000221A61019B9B6800225A61019B9B6898
:102888000022DA60019B9B6800225A60019B9B68CA
:1028980000221A6000BF02B07047000000B585B082
:1028A8000190019800F00EF80390039B002B01D0D3
:1028B800039B00E0024B184605B05DF804FB00BF1F
:1028C8001C55000086B00190164B0593164B0493D7
:1028D8001FE0049A059BD31ADB10DA0F13445B1030
:1028E800DB00059A13440393039B1B680293029A27
:1028F800019B9A4202D9039B04930AE0029A019B26
:102908009A4203D2039B0833059302E0039B5B685A
:1029180004E0059A049B9A42DBD30023184606B0CC
:10292800704700BFF0580000085A000000B589B091
:1029380001900091009B0793019B1B788DF80C3048
:10294800019B5B680493019B9B68DBB28DF8143094
:10295800019BDB680693074A079B52F82330064918
:10296800079A51F8221003AA1046984700BF09B0E9
:102978005DF804FBAC060020B006002000B589B065
:1029880001900091009B0793019B1B788DF80C30F8
:10299800019B5B680493019B9B68DBB28DF8143044
:1029A800019BDB680693074A079B52F823300649C8
:1029B800079A51F8221003AA1046984700BF09B099
:1029C8005DF804FBAC060020B006002030B58FB0DF
:1029D800039002910192039B1B780C9326490C9B50
:1029E800019A41F82320029B1A6924490C9B41F85B
:1029F8002320029B5B7F1946214A0C9B13440A46FD
:102A08001A70029B04AC1D460FCD0FC495E80F0049
:102A180084E80F000C9B089300230D93039B1B78FD
:102A28001A46174B9B5C002B0DD0039B181D019B6E
:102A3800002B01D0134A00E0002204AB194601F034
:102A480025FA0D9014E0039B1B781A460C4B9B5CEF
:102A5800002B0DD1039B03F10C00019B002B01D02F
:102A6800094A00E0002204AB194600F0E7FB0D908C
:102A78000D9B18460FB030BDAC060020B0060020F4
:102A8800B4060020352900008529000008B5064B4A
:102A98001B68002B03D105495120FEF7D6FF024BD6
:102AA8001B68984708BD00BFB80600200C5A0000F4
:102AB80082B00190019B044A934201D1034B00E08C
:102AC8000023184602B0704700200040B8060020D6
:102AD80030B587B001900091019B002B03D12949A3
:102AE8007720FEF7B2FF0198FFF7E2FF0490049BFE
:102AF800002B2FD000238DF817300020FEF75EFF43
:102B0800049B1B79002B03D001238DF8173005E0B7
:102B1800049B009A1A60049B01221A710020FEF798
:102B280061FF9DF81730002B14D011230393164A28
:102B3800164BD31ADB081B0443F00204144D039808
:102B4800FFF7ACFE03462A4612492046FEF7FDF978
:102B5800039B13E0002303930B4A0C4BD31ADB08A7
:102B68001B0443F003040A4D0398FFF797FE03463E
:102B78002A4608492046FEF7E8F9039B184607B09D
:102B880030BD00BF0C5A0000885100008851000079
:102B9800585A0000385A000000B585B00190019BD2
:102BA800002B03D10A499B20FEF74FFF0198FFF73E
:102BB8007FFF0390039B002B05D0039B00221A6024
:102BC800039B00221A7100BF05B05DF804FB00BF2B
:102BD8000C5A000082B003468DF807309DF8073084
:102BE80003F01F0205499DF907305B09012000FA2F
:102BF80002F241F8232000BF02B0704700E100E074
:102C080082B003468DF807309DF8073003F01F02A5
:102C180006499DF907305B09012000FA02F22033CA
:102C280041F8232000BF02B0704700BF00E100E078
:102C380082B0034600918DF807309DF90730002BCC
:102C48000CDA009BDAB20C499DF8073003F00F0349
:102C5800043B5201D2B20B441A7609E0009BDAB267
:102C680006499DF907305201D2B20B4483F800237C
:102C780000BF02B0704700BF00ED00E000E100E0D7
:102C880082B00190019B1B0B5BB2184602B07047E3
:102C980000B583B003460A468DF8073013468DF811
:102CA80006309DF80630072B03D908496B20FEF73C
:102CB800CCFE9DF806209DF9073011461846FFF70F
:102CC800B7FF00BF03B05DF804FB00BF6C5A0000FB
:102CD80000B583B003468DF807309DF907301846D4
:102CE800FFF778FF00BF03B05DF804FB00B583B0C1
:102CF80003468DF807309DF907301846FFF780FF27
:102D080000BF03B05DF804FB84B001900B46ADF83A
:102D18000230BDF80230019A134400221A60BDF84F
:102D28000230019A13441B680393039B00BF04B04D
:102D3800704782B001900B46ADF80230BDF8023002
:102D4800019A13441B68002B14BF01230023DBB234
:102D5800184602B0704782B001900091019B009A1A
:102D6800C3F8042300BF02B0704782B001900091FD
:102D7800019BD3F80423009B1340002B14BF0123AD
:102D88000023DBB2184602B0704782B00190009170
:102D9800019B009AC3F8082300BF02B0704784B0B3
:102DA8000190019BD3F880340393019B039AC3F8E5
:102DB8008024039B184604B0704782B00190019BA1
:102DC8000422C3F8002500BF02B0704782B001900A
:102DD800019B0022C3F8002500BF02B0704784B0F1
:102DE800039002910192039B019AC3F81425039B57
:102DF800029AC3F80C2500BF04B0704700B583B031
:102E080001904FF0FF324FF0FF310198FFF7E7FFD5
:102E180000BF03B05DF804FB82B00190019BD3F8BA
:102E28000C35184602B0704782B00190019BD3F868
:102E38001435184602B0704782B00190019BD3F850
:102E48000835184602B0704782B00190019BD3F84C
:102E58001035184602B0704784B003900291019271
:102E6800039B029AC3F80825039B019AC3F810250F
:102E780000BF04B0704700B583B001904FF0FF3237
:102E88004FF0FF310198FFF7E7FF00BF03B05DF88F
:102E980004FB82B00190019BD3F81835DBB21846C9
:102EA80002B0704782B001900B468DF803309DF850
:102EB8000320019BC3F81C2500BF02B0704782B0F5
:102EC80001900B468DF803309DF80330019A1344A6
:102ED80001221A6000BF02B0704782B001900B4611
:102EE8008DF8033013468DF802309DF803209DF8C5
:102EF80002301343DBB21A46019BC3F86C2500BFAE
:102F080002B0704782B001900091019B009AC3F80B
:102F1800242500BF02B0704700B583B00190019B23
:102F28001B681F2B04D905494FF4F370FEF78DFD7C
:102F38004FF0A043184603B05DF804FB8C5A00001C
:102F480000B585B00190084611461A4603468DF82B
:102F580003300B468DF8023013468DF8013001AB73
:102F68001846FFF7D9FF03909DF803209DF802301B
:102F78005B001A439DF801309B001A439DF81830F6
:102F88001B0242EA03019DF81C301B04019A1943F5
:102F9800039B02F5E07243F8221000BF05B05DF80C
:102FA80004FB00B585B00390002301930023009330
:102FB8000023012201210398FFF7C2FF00BF05B0DB
:102FC8005DF804FB00B585B003900B468DF80B3017
:102FD8009DF80B300022019200220092002200216D
:102FE8000398FFF7ADFF00BF05B05DF804FB00B51F
:102FF80085B003900023019300230093002301224E
:1030080000210398FFF79CFF00BF05B05DF804FBA3
:1030180000B585B0019001AB1846FFF77DFF03901E
:10302800019B012202FA03F31946039800F004F801
:1030380000BF05B05DF804FB82B001900091019BD0
:10304800009AC3F8082500BF02B0704700B583B0E6
:1030580001900091009B1B68B3F1FF3F09D0009BD2
:103068001B681846FFF7D4FF009B1B681846FFF73C
:1030780098FF009B5B68B3F1FF3F05D0009B5B683E
:1030880000211846FFF79EFF019B1A68009B9B6969
:1030980019461046FFF736FF019B1868009B597DBB
:1030A800009B1B7D1A46FFF718FF019B1868009BC1
:1030B8001968009B5B681A46FFF791FE009B1B7D11
:1030C800012B22D1009B9B68B3F1FF3F05D0009BE9
:1030D8009B6800211846FFF775FF009BDB68B3F17A
:1030E800FF3F09D0009BDB681846FFF791FF009B64
:1030F800DB681846FFF755FF019B1868009BD968E5
:10310800009B9B681A46FFF7A7FE00BF03B05DF857
:1031180004FB000000B583B001900B468DF8033026
:10312800019B1B684FF48E711846FFF7EDFD019B5C
:103138001B684FF4A2711846FFF7E6FD019B1B6858
:103148000E491846FFF707FE019B1B681846FFF754
:1031580097FD03461A469DF8033019461046FFF7B7
:1031680097FD019B1B681846FFF78AFD0346184622
:10317800FFF7AEFD00BF03B05DF804FB800002005E
:1031880000B583B00190019B1B6808491846FFF7FA
:10319800FCFD019B1B681846FFF772FD03461846A5
:1031A800FFF7A4FD00BF03B05DF804FB8402020032
:1031B80000B587B00190019B1B681846FFF72CFEED
:1031C8000590019B1B681846FFF72EFE0490019B93
:1031D8001B681846FFF730FE0390019B1B681846D2
:1031E800FFF732FE0290019B1B681846FFF706FEA8
:1031F800019B1B681846FFF73EFE059BB3F1FF3F96
:1032080002D00598FFF7F3FE049BB3F1FF3F02D00D
:103218000498FFF7ECFE029BB3F1FF3F02D002983F
:10322800FFF7E5FE039BB3F1FF3F02D00398FFF7DA
:10323800DEFE00BF07B05DF804FB000000B587B0F4
:10324800039002910192029B002B03D12D49AA20E1
:10325800FEF7FBFB039B1B791A462C2302FB03F3A7
:10326800294A1344049300230593049B93F82A30B6
:10327800002B03D008230593059B3EE0039B1A68A7
:10328800039B1B791946214B53F8213019461046E8
:10329800FFF71EFC0346002B03D011230593059B63
:1032A8002BE002990398FFF7D1FE049B019A5A601C
:1032B800029B1A69049B1A60049B5B68002B05D06B
:1032C800029B1B7F19460398FFF724FF039B1B688B
:1032D8001846FFF772FD049B00229A61049B0022A6
:1032E800DA61049B002283F82920049B00225A619A
:1032F800049B012283F82A20059B184607B05DF835
:1033080004FB00BFB45A0000C0060020DC5A0000CD
:1033180000B585B00190019B1B791A462C2302FB4E
:1033280003F3114A13440393019B1B681846FFF7E4
:103338004DFD039B5B68002B02D00198FFF720FF2F
:103348000198FFF735FF019B1B681846FFF724FC1F
:10335800039B002283F82A20039B00225A6000BFA7
:1033680005B05DF804FB00BFC006002000B585B0BD
:10337800019000914FF48E710198FFF7C5FC009BF6
:103388009A68009B1B6A13441B788DF80F30009BCA
:103398001B6A5A1C009B1A629DF80F301946019847
:1033A800FFF780FD00BF05B05DF804FB00B583B0F2
:1033B8000190009116E0009B93F82830DBB2002BB7
:1033C80001D0002315E04FF48E710198FFF7B1FC8E
:1033D800034683F00103DBB2002BECD1009901987E
:1033E800FFF7C4FF009B1A6A009B5B699A42EAD305
:1033F8000123184603B05DF804FB000000B587B050
:10340800039002910192039B1B791A462C2302FB1D
:1034180003F33C4A13440493049B93F82A30012B8A
:1034280004D0394940F21510FEF70FFB029B002B20
:1034380004D135494FF48B70FEF707FB019B002B35
:1034480004D1314940F21710FEF7FFFA039800F053
:103458005DF80346002B03D011230593059B4CE030
:10346800049B019A5A61049B029A9A60049B002269
:103478001A62049B002283F8282000230593039BEB
:103488001B684FF48E711846FFF73EFC039B1B68C0
:1034980008211846FFF713FD039B1B68049918467B
:1034A800FFF764FF049B5B68002B25D1039B1B6817
:1034B80004991846FFF77AFF034683F00103DBB24D
:1034C800002B02D00F23059313E000BF039B1B685A
:1034D8004FF48E711846FFF72CFC034683F0010366
:1034E800DBB2002BF2D1039B1B680C211846FFF7B7
:1034F800E6FC049B00225A61059B184607B05DF85C
:1035080004FB00BFC0060020B45A000082B001903E
:10351800019B1B791946074A2C2301FB03F313442B
:1035280014331B68002B14BF01230023DBB2184699
:1035380002B07047C006002010B582B0019000911B
:10354800009B9B69002B08D14FF484710198FFF709
:10355800DBFB0198FFF79DFC13E04FF484710198A1
:10356800FFF7D2FB009BDA68009B5B6AD4180198CE
:10357800FFF78FFC03462370009B5B6A5A1C009B75
:103588005A6202B010BD00B589B003900291019251
:1035980001238DF81030029B0693019B0593039B32
:1035A8005B68039A116804AA1046984700BF09B0DF
:1035B8005DF804FB00B587B00190009100238DF8F9
:1035C8000830009B0493019B9B680393019B002296
:1035D8005A61019B5B68019A116802AA10469847D4
:1035E80000BF07B05DF804FB00B589B001900091F9
:1035F8004FF400710198FFF7B8FB0346002B39D050
:103608004FF492710198FFF794FB0346002B31D0D9
:103618004FF492710198FFF777FB4FF4017101980D
:10362800FFF7B3FB009B93F8293083F00103DBB26B
:10363800002B03D004210198FFF741FC02238DF8E9
:1036480008300198FFF7ABFB03460593009B9B6985
:103658000493009BDB680393009B00229A61009B04
:103668000022DA61009B5B68009A116802AA104682
:10367800984752E004210198FFF777FB0346002B97
:103688004BD04FF484710198FFF753FB0346002B8E
:1036980043D000990198FFF74FFF009B9A69009B60
:1036A8005B6A9A4239D1009BDB69002B19D0009BD9
:1036B800DB680793009B5B6A0693009BDA69009BB3
:1036C8009A61009B1A69009BDA60009B0022DA610C
:1036D800009B00225A62079A06990098FFF753FF49
:1036E8001BE0009B93F8293083F00103DBB2002B29
:1036F80003D004210198FFF7E2FB4FF40171019810
:10370800FFF743FB009B00229A61009B596A009BCC
:10371800DB681A460098FFF736FF4FF48E71019860
:10372800FFF707FB0346002B22D0009B1A6A009B79
:103738005B699A420DD2009B93F82830DBB283F084
:103748000103DBB2002B04D000990198FFF70EFEAD
:103758000EE04FF48E710198FFF7D6FA009B5B6973
:10376800002B05D0009B5B6919460098FFF722FFE4
:103778004FF4A2710198FFF7DCFA0346002B1CD026
:103788004FF4A2710198FFF7BFFA009B93F8293014
:10379800002B03D000210198FFF791FB009B9B6948
:1037A800002B0AD0009B00229A61009B596A009B5B
:1037B800DB681A460098FFF7E6FE00BF09B05DF81F
:1037C80004FB000008B503490348FFF70DFF00BFDD
:1037D80008BD00BFC00600200020004082B003469C
:1037E8008DF807309DF8073003F01F0205499DF951
:1037F80007305B09012000FA02F241F8232000BFDC
:1038080002B0704700E100E082B003468DF807304F
:103818009DF8073003F01F0206499DF907305B0940
:10382800012000FA02F2203341F8232000BF02B041
:10383800704700BF00E100E082B0034600918DF8B8
:1038480007309DF90730002B0CDA009BDAB20C49DF
:103858009DF8073003F00F03043B5201D2B20B442A
:103868001A7609E0009BDAB206499DF90730520141
:10387800D2B20B4483F8002300BF02B0704700BFE8
:1038880000ED00E000E100E082B00190019B03F050
:103898006043B3F1005F0CBF01230023DBB218467D
:1038A80002B0704782B00190019B1B0B5BB21846B7
:1038B80002B0704700B583B003460A468DF807305A
:1038C80013468DF806309DF80630072B03D90849B2
:1038D8006B20FEF7BAF89DF806209DF907301146CF
:1038E8001846FFF7A9FF00BF03B05DF804FB00BF4F
:1038F800E05A000000B583B003468DF807309DF903
:1039080007301846FFF76AFF00BF03B05DF804FBF5
:1039180000B583B003468DF807309DF90730184687
:10392800FFF772FF00BF03B05DF804FB84B001909D
:103938000B46ADF80230BDF80230019A134400225C
:103948001A60BDF80230019A13441B680393039B65
:1039580000BF04B0704782B001900B46ADF802304A
:10396800BDF80230019A13441B68002B14BF0123D1
:103978000023DBB2184602B0704782B00190009174
:10398800019BD3F80022009BDB431A40019BC3F83C
:10399800002200BF02B0704782B001900091019BE5
:1039A800009AC3F8042300BF02B0704782B00190A8
:1039B8000091019B009AC3F8082300BF02B070472A
:1039C80084B00190019BD3F880340393019B039A40
:1039D800C3F88024039B184604B0704782B0019056
:1039E800019B0822C3F8002500BF02B0704782B0CF
:1039F8000190019B0022C3F8002500BF02B0704768
:103A080084B0039002910192039B029AC3F80C259B
:103A1800039B019AC3F8142500BF04B0704700B592
:103A280083B001904FF0FF324FF0FF310198FFF75C
:103A3800E7FF00BF03B05DF804FB82B00190019B73
:103A4800D3F80C35184602B0704782B00190019B3C
:103A5800D3F81435184602B0704782B00190019B24
:103A6800D3F80835184602B0704782B00190019B20
:103A7800D3F81035184602B0704784B0039002910D
:103A88000192039B029AC3F80825039B019AC3F885
:103A9800102500BF04B0704700B583B001904FF007
:103AA800FF324FF0FF310198FFF7E7FF00BF03B087
:103AB8005DF804FB82B001900B468DF803309DF849
:103AC8000330019A134401221A6000BF02B0704704
:103AD80082B001900B468DF8033013468DF8023002
:103AE8009DF803209DF802301343DBB21A46019B70
:103AF800C3F86C2500BF02B0704782B001900091F6
:103B0800019B009AC3F8242500BF02B0704784B017
:103B1800039002910192029A039BC3F84425039BE8
:103B2800019AC3F8482500BF04B0704782B00190DD
:103B3800019BD3F84C35184602B0704782B001900B
:103B4800019BD3F83C35184602B0704700B583B0E6
:103B58000190019B1B681F2B04D905494FF4F37092
:103B6800FDF773FF4FF0A043184603B05DF804FB60
:103B7800005B000000B585B00190084611461A4662
:103B880003468DF803300B468DF8023013468DF846
:103B9800013001AB1846FFF7D9FF03909DF80320C9
:103BA8009DF802305B001A439DF801309B001A43D0
:103BB8009DF818301B0242EA03019DF81C301B04D3
:103BC800019A1943039B02F5E07243F8221000BFE3
:103BD80005B05DF804FB00B585B0039000230193A0
:103BE800002300930023012201210398FFF7C2FF5D
:103BF80000BF05B05DF804FB00B585B003900B4627
:103C08008DF80B309DF80B300022019200220092B3
:103C1800002200210398FFF7ADFF00BF05B05DF853
:103C280004FB00B585B003900023019300230093A3
:103C38000023012200210398FFF79CFF00BF05B075
:103C48005DF804FB00B585B0019001AB1846FFF79D
:103C58007DFF0390019B012202FA03F319460398A2
:103C680000F004F800BF05B05DF804FB82B00190D5
:103C78000091019B009AC3F8082500BF02B0704765
:103C880000B583B001900091009B1B68B3F1FF3F22
:103C980009D0009B1B681846FFF7D4FF009B1B68E0
:103CA8001846FFF798FF009B5B68B3F1FF3F05D00C
:103CB800009B5B6800211846FFF79EFF019B1A686E
:103CC800009B9B6919461046FFF717FF019B186870
:103CD800009B597D009B1B7D1A46FFF7F9FE019B4F
:103CE8001868009B1968009B5B681A46FFF788FEF6
:103CF800009B1B7D012B22D1009B9B68B3F1FF3FEA
:103D080005D0009B9B6800211846FFF775FF009BB4
:103D1800DB68B3F1FF3F09D0009BDB681846FFF76B
:103D280091FF009BDB681846FFF755FF019B186859
:103D3800009BD968009B9B681A46FFF79EFE00BF50
:103D480003B05DF804FB000000B583B001900B469A
:103D58008DF80330019B1B684FF488711846FFF7F4
:103D6800E5FD019B1B684FF490711846FFF7DEFDD7
:103D7800019B1B684FF492711846FFF7D7FD019B12
:103D88001B684FF4A2711846FFF7D0FD019B1B6812
:103D98000E491846FFF700FE019B1B681846FFF7FF
:103DA80081FD03461A469DF8033019461046FFF771
:103DB80081FD019B1B681846FFF774FD03461846F2
:103DC800FFF798FD00BF03B05DF804FB1003020085
:103DD80000B583B00190019B1B6808491846FFF79E
:103DE800E5FD019B1B681846FFF75CFD0346184676
:103DF800FFF78EFD00BF03B05DF804FB100302005F
:103E080000B587B00190019B1B681846FFF715FEA7
:103E18000590019B1B681846FFF717FE0490019B4D
:103E28001B681846FFF719FE0390019B1B6818468C
:103E3800FFF71BFE0290019B1B681846FFF7EFFD7A
:103E4800019B1B681846FFF727FE059BB3F1FF3F50
:103E580002D00598FFF7E5FE049BB3F1FF3F02D0BF
:103E68000498FFF7DEFE029BB3F1FF3F02D00298F1
:103E7800FFF7D7FE039BB3F1FF3F02D00398FFF78C
:103E8800D0FE00BF07B05DF804FB000000B587B0A6
:103E9800039002910192029B002B03D12B49CD2064
:103EA800FDF7D3FD039B1B791A461346DB00134429
:103EB8009B00274A1344049300230593049B93F81B
:103EC8002030002B03D008230593059B3AE0039B81
:103ED8001A68039B1B7919461E4B53F82130194663
:103EE8001046FEF7F5FD0346002B03D0112305937A
:103EF800059B27E002990398FFF7C2FE049B019AED
:103F08005A60029B1A69049B1A60049B5B68002B29
:103F180005D0029B1B7F19460398FFF715FF039BEB
:103F28001B681846FFF75AFD049B00229A61049B00
:103F38000022DA61049B00225A61049B012283F863
:103F48002020059B184607B05DF804FB285B00009D
:103F5800EC060020545B000000B585B00190019B81
:103F68001B791A461346DB0013449B00104A13447E
:103F78000393019B1B681846FFF739FD039B5B6899
:103F8800002B02D00198FFF723FF0198FFF738FFB5
:103F9800019B1B681846FEF7FFFD039B002283F870
:103FA8002020039B00225A6000BF05B05DF804FB87
:103FB800EC06002000B589B0039002910192039BA2
:103FC8001B791A461346DB0013449B004C4A1344E2
:103FD8000493049B93F82030012B04D049494FF4F3
:103FE8009270FDF732FD029B002B04D1454940F247
:103FF8002510FDF72AFD019B002B04D141494FF400
:104008009370FDF722FD039B1B79002B02D1019BC6
:10401800FF2B04D93B4940F22710FDF716FD029803
:10402800FFF732FC034683F00103DBB2002B03D019
:1040380010230693069B5EE0039800F065F803469C
:10404800002B03D011230693069B54E0049B019A8E
:104058005A61049B029A9A6000230693039B1B688B
:104068004FF490711846FFF761FC039B1B684FF4EF
:10407800AC711846FFF75AFC039B1868049B9968B3
:10408800049B5B691A46FFF742FD039B1B680821E6
:104098001846FFF70FFD049B5B68002B2AD1039B92
:1040A8001B684FF490711846FFF755FC03468DF8CE
:1040B8001730039B1B684FF4AC711846FFF74BFC95
:1040C80003468DF81F309DF8173083F00103DBB2EB
:1040D800002B06D09DF81F3083F00103DBB2002BC4
:1040E800DDD19DF81F30002B01D00F230693049BD0
:1040F80000225A61069B184609B05DF804FB00BF10
:10410800EC060020285B000082B00190019B1B791F
:104118001946084A0B46DB000B449B001344143332
:104128001B68002B14BF01230023DBB2184602B022
:10413800704700BFEC06002000B589B003900291DB
:10414800019201238DF81030029B0693019B059381
:10415800039B5B68039A116804AA1046984700BF3E
:1041680009B05DF804FB00B587B001900091002309
:104178008DF80830009B0493019B9B680393019B77
:1041880000225A61019B5B68019A116802AA1046D5
:10419800984700BF07B05DF804FB00B589B00190EF
:1041A80000914FF492710198FFF7D5FB0346002B5D
:1041B80022D04FF492710198FFF7B8FB02238DF8D3
:1041C80008300198FFF7FCFB034605930198FFF7B9
:1041D800B5FC03460493009BDB680393009B002215
:1041E8009A61009B0022DA61009B5B68009A116863
:1041F80002AA104698473BE04FF488710198FFF7F0
:10420800AAFB0346002B33D04FF488710198FFF7BF
:104218008DFB0198FFF792FC0790009B9B69079A1A
:104228009A4225D1009BDB69002B17D0009BDB68E5
:10423800069320210198FFF7A0FB009BDA69009BF9
:104248009A61009B1A69009BDA60009B0022DA6180
:10425800069A07990098FFF76FFF09E0009B002274
:104268009A61009BDB681A4607990098FFF764FF7C
:104278004FF4A2710198FFF76EFB0346002B18D08C
:104288004FF4A2710198FFF751FB009B9B69002B2B
:104298000FD0009B00229A61009B0022DA610198EE
:1042A800FFF74CFC0146009BDB681A460098FFF7B5
:1042B80043FF4FF490710198FFF74DFB0346002B25
:1042C80010D04FF490710198FFF730FB009B5B69A9
:1042D800002B07D00198FFF729FC034619460098E0
:1042E800FFF741FF00BF09B05DF804FB08B50349BB
:1042F8000348FFF752FF00BF08BD00BFEC060020CF
:1043080000200040BFF34F8F00BF074BDB6803F46A
:10431800E0620549054B1343CB60BFF34F8F00BFE5
:1043280000BF00BFFCE700BF00ED00E00400FA0595
:1043380000B585B00190019B002B0AD0074B43F0D4
:1043480001030393019B9B010293039B02989847E7
:1043580000E000BF05B05DF804FB00BF605C000032
:1043680000B583B00190019B002B0AD04FF47A70FE
:10437800FFF7DEFF019B013B0193019B002BF5D169
:1043880000E000BF03B05DF804FB000000B583B097
:104398000190019B1B681F2B04D905494FF4F3704A
:1043A800FDF753FB4FF0A043184603B05DF804FB3C
:1043B800585B000000B585B00190084611461A46C2
:1043C80003468DF803300B468DF8023013468DF8FE
:1043D800013001AB1846FFF7D9FF03909DF8032081
:1043E8009DF802305B001A439DF801309B001A4388
:1043F8009DF818301B0242EA03019DF81C301B048B
:10440800019A1943039B02F5E07243F8221000BF9A
:1044180005B05DF804FB00B585B003900023019357
:10442800002300930023012201210398FFF7C2FF14
:1044380000BF05B05DF804FB00B585B003900B46DE
:104448008DF80B309DF80B3000220192002200926B
:10445800002200210398FFF7ADFF00BF05B05DF80B
:1044680004FB00B585B0019001AB1846FFF78EFF3D
:104478000390019B012202FA03F31946039800F006
:1044880035F800BF05B05DF804FB00B585B00190B4
:1044980001AB1846FFF77AFF0390019B012202FA4D
:1044A80003F31946039800F02BF800BF05B05DF838
:1044B80004FB00B585B0019001AB1846FFF766FF15
:1044C8000390039800F00AF80246019B22FA03F3CE
:1044D80003F00103184605B05DF804FB82B00190B3
:1044E800019BD3F81035184602B0704782B001908E
:1044F8000091019B009AC3F8082500BF02B07047DD
:1045080082B001900091019B009AC3F80C2500BF6E
:1045180002B0704708B51120FFF77DFF1220FFF7A2
:104528007AFF1320FFF777FF1420FFF774FF11209D
:10453800FFF797FF1220FFF794FF1320FFF791FF73
:104548001420FFF78EFF03210D20FFF775FF00BF32
:1045580008BD00B583B00023019320E01120FFF7C8
:1045680094FF1220FFF791FF1320FFF78EFF14200E
:10457800FFF78BFFC820FFF7F3FE1120FFF771FF4D
:104588001220FFF76EFF1320FFF76BFF1420FFF7D1
:1045980068FFC820FFF7E4FE019B01330193019BEC
:1045A800012BDBDD00BF00BF03B05DF804FB00009A
:1045B80000B583B000230193019B43F00A030193E4
:1045C800019B43F480630193019B43F43B0343F451
:1045D80000430193294A2A4BD31ADB081B0443F0F2
:1045E8000303019A27491846FCF79EFC264B022232
:1045F800C3F8042500BF244BD3F80034002BFAD0AD
:10460800214B0122C3F8142500BF1F4BD3F80034F7
:10461800002BFAD01C4B0122C3F8042500BF1A4B0B
:10462800D3F80034002BFAD0184A019B136000BF5E
:10463800154BD3F80034002BFAD0134B0022C3F8E3
:10464800042500BF104BD3F80034002BFAD00B4AD6
:104658000B4BD31ADB081B0443F003030C49184621
:10466800FCF754FCFCF7AEFC0346002BFAD1FFF72D
:1046780049FE00BF03B05DF804FB00BFA051000075
:1046880088510000785B000000E0014080100010B5
:10469800A05B000000B583B000210020FCF75EF9A4
:1046A8000190019B002B04D0214A62210198FDF75B
:1046B800D9F8FCF7D5F81F4A1F4BD31ADB081B049F
:1046C80043F003031D491846FCF720FCFFF722FFBF
:1046D800FFF73FFF1A4B1B7883F00103DBB2002B77
:1046E80016D00D20FFF7E5FE0346002B10D1144B22
:1046F80001221A700F4A104BD31ADB081B0443F02F
:10470800030310491846FCF701FCFFF751FF08E0C6
:104718000D20FFF7CEFE0346012B02D1084B0022E5
:104728001A70FCF74FFC0346002BFAD1D2E700BF02
:10473800C45B0000A051000088510000F05B00003D
:1047480010070020285C000082B0204B0193019BD9
:1047580002221A61019B02225A61019B1C4A9A613A
:10476800019B1C4ADA61019B4FF400721A62019B9B
:1047780000229A62019B00225A62019B0022DA629F
:10478800019B134A9A64019B134ADA64019B102225
:104798001A65019B00229A65019B00225A65019BBC
:1047A8000022DA65019B07330C4A10681860019BE8
:1047B8000B4A106818609188927999809A71019BC8
:1047C80020229A7100BF02B0704700BF1407002072
:1047D800685C00008C0700208C090020745C0000D5
:1047E800785C000000B589B0039002910192002323
:1047F8000693039BDB680593039B1B690493049A48
:10480800059B9A4205D9049A059BD31A013B079345
:1048180007E0039B9A680499059BCB1A1344013B54
:104828000793039B9A68059BD31A079A934228BF5C
:1048380013460793079A019B934228BF1346079391
:10484800039B5A68059B1344079A0299184600F07F
:1048580069FC069A079B13440693029A079B134424
:104868000293019A079BD31A0193059A079B134455
:104878000593039B9B68059A9A4201D100230593EF
:10488800039B059ADA60019B002BB5D1069B18465D
:1048980009B05DF804FB00B589B00390029101925C
:1048A800039BDB680793039B9A68079BD31A0693BD
:1048B800069A019B9A420ED9039B5A68079B134498
:1048C800019A0299184600F02DFC079A019B1A4498
:1048D800039BDA601AE0069B0593039B5A68079BC3
:1048E8001344059A0299184600F01CFC019A069B8D
:1048F800D31A0593039B5868029A069B1344059A9A
:10490800194600F00FFC039B059ADA6000BF09B056
:104918005DF804FB86B00190019B1B690493019B21
:10492800DB680393049A039B9A4208D8019B9A6810
:10493800039BD21A049B1344013B059304E0049A99
:10494800039BD31A013B0593059B184606B0704795
:1049580000B589B0039002910192029B0693039BD4
:104968005A1C13465B001344DB00204A134405938A
:10497800059B5B69022B29D0022B2ED8002B02D075
:10498800012B13D029E00598FFF7C4FF0490049A7F
:10499800019B9A4202D20023079321E0019B0793CF
:1049A800019A06990598FFF776FF19E00598FFF731
:1049B800B1FF0490019A049B934228BF13460793C2
:1049C800079A06990598FFF766FF09E0019A069984
:1049D8000598FFF707FF079002E00023079300BF41
:1049E800079B184609B05DF804FB00BF14070020B8
:1049F80008B5FFF7A9FE00BF08BD0000BFF34F8F41
:104A080000BF074BDB6803F4E0620549054B13431D
:104A1800CB60BFF34F8F00BF00BF00BFFCE700BFF4
:104A280000ED00E00400FA05024B034A1A6000BFDB
:104A3800704700BF5C0000200090D00308B500F06C
:104A480069F90346002B06D0A04B1B681B0AA04A35
:104A580003F01F03136000F089F90346002B02D00E
:104A68009C4B9D4A1A6000F09DF90346002B06D026
:104A78009A4B1B685B0B9A4A03F00703136000F01C
:104A8800BDF90346002B05D0964BDB68954A23F009
:104A98008073D36000F0CEF90346002B0ED04FF0A0
:104AA80080430022C3F80C214FF080430022C3F852
:104AB80010214FF080430022C3F8382500F0E6F9B2
:104AC8000346002B02D0884B03221A6000F0FAF943
:104AD8000346002B0BD0854B05221A60844B01221C
:104AE8001A60844B00221A60834B3F221A6000F040
:104AF80005FA0346002B76D04FF080537F4AD3F84F
:104B08000434C2F820354FF080537C4AD3F8083477
:104B1800C2F824354FF08053784AD3F80C34C2F8E1
:104B280028354FF08053754AD3F81034C2F82C3525
:104B38004FF08053714AD3F81434C2F830354FF02F
:104B480080536E4AD3F81834C2F834354FF0805386
:104B58006A4AD3F81C34C2F840354FF08053674A8C
:104B6800D3F82034C2F844354FF08053634AD3F861
:104B78002434C2F848354FF08053604AD3F82834BB
:104B8800C2F84C354FF080535C4AD3F82C34C2F845
:104B980050354FF08053594AD3F83034C2F8543561
:104BA8004FF08053554AD3F83434C2F860354FF08B
:104BB8008053524AD3F83834C2F864354FF08053E2
:104BC8004E4AD3F83C34C2F868354FF080534B4A0C
:104BD800D3F84034C2F86C354FF08053474AD3F8C5
:104BE8004434C2F8703500F0A5F90346002B05D00F
:104BF800434B1B68434A03F04F03136000F0C6F9A8
:104C08000346002B0DD04FF08043D3F8003403F057
:104C18000103002B05D04FF080436FF00102C3F869
:104C2800002400F0DFF90346002B05D0364B1B6843
:104C3800354A43F480631360344BD3F88830334AE1
:104C480043F47003C2F88830BFF34F8F00BFBFF33F
:104C58006F8F00BF4FF01023D3F80032002B05DB15
:104C68004FF01023D3F80432002B2BDA284B012203
:104C7800C3F8042500BF264BD3F80034002BFAD024
:104C88004FF010231522C3F8002200BF204BD3F8A1
:104C98000034002BFAD04FF010231522C3F8042259
:104CA80000BF1B4BD3F80034002BFAD0184B00225E
:104CB800C3F8042500BF164BD3F80034002BFAD0F4
:104CC800FFF79CFEFFF7B0FE00BF08BD24030010ED
:104CD8004035014074C007400DF0ADBA44020010E1
:104CE8003C050040F0ED00E0A005004010560040F3
:104CF80088560040185600401456004000C0004036
:104D080058020010E40E00403C17004000ED00E09F
:104D180000E00140124B1B68DBB2062B1DD1114B82
:104D28001B6803F00F03002B17D10F4B1B6803F010
:104D3800F003302B01D1012310E00B4B1B6803F06B
:104D4800F003402B01D1012308E0074B1B6803F057
:104D5800F003502B01D1012300E0002318467047CF
:104D6800E00F00F0E40F00F0E80F00F00A4B1B68BA
:104D7800DBB2062B0DD1094B1B6803F00F03002B88
:104D880007D1074B1B6803F0F003302B01D1012337
:104D980000E0002318467047E00F00F0E40F00F031
:104DA800E80F00F0124B1B68DBB2062B1DD1114B2C
:104DB8001B6803F00F03002B17D10F4B1B6803F080
:104DC800F003302B01D1012310E00B4B1B6803F0DB
:104DD800F003402B01D1012308E0074B1B6803F0C7
:104DE800F003502B01D1012300E00023184670473F
:104DF800E00F00F0E40F00F0E80F00F00A4B1B682A
:104E0800DBB2062B0DD1094B1B6803F00F03002BF7
:104E180007D1074B1B6803F0F003302B01D10123A6
:104E280000E0002318467047E00F00F0E40F00F0A0
:104E3800E80F00F0124B1B68DBB2062B1DD1114B9B
:104E48001B6803F00F03002B17D10F4B1B6803F0EF
:104E5800F003302B01D1012310E00B4B1B6803F04A
:104E6800F003402B01D1012308E0074B1B6803F036
:104E7800F003502B01D1012300E0002318467047AE
:104E8800E00F00F0E40F00F0E80F00F00A4B1B6899
:104E9800DBB2062B0DD1094B1B6803F00F03002B67
:104EA80007D1074B1B6803F0F003302B01D1012316
:104EB80000E0002318467047E00F00F0E40F00F010
:104EC800E80F00F00A4B1B68DBB2062B0DD1094B2B
:104ED8001B6803F00F03002B07D1074B1B6803F077
:104EE800F003302B01D1012300E00023184670475E
:104EF800E00F00F0E40F00F0E80F00F00A4B1B6829
:104F0800DBB2062B0DD1094B1B6803F00F03002BF6
:104F180007D1074B1B6803F0F003502B01D1012385
:104F280000E0002318467047E00F00F0E40F00F09F
:104F3800E80F00F0124B1B68DBB2062B1DD1114B9A
:104F48001B6803F00F03002B17D10F4B1B6803F0EE
:104F5800F003302B01D1012310E00B4B1B6803F049
:104F6800F003402B01D1012308E0074B1B6803F035
:104F7800F003502B01D1012300E0002318467047AD
:104F8800E00F00F0E40F00F0E80F00F0124B1B6890
:104F9800DBB2062B1DD1114B1B6803F00F03002B4E
:104FA80017D10F4B1B6803F0F003302B01D10123FD
:104FB80010E00B4B1B6803F0F003402B01D10123D9
:104FC80008E0074B1B6803F0F003502B01D10123C5
:104FD80000E0002318467047E00F00F0E40F00F0EF
:104FE800E80F00F0064B1B68062B05D1054B1B6824
:104FF800062B01D1012300E000231846704700BFAB
:10500800300100103401001084460020002918BF28
:10501800002A00D17047097848B2002844BF6FF0D1
:1050280001007047BCF1000F18BFCCF80010002138
:10503800C3E90011002818BF012070477F298EBFDF
:105048006FF0010001700120704740F69C12C2F217
:1050580000021368002B02BF40F26003C2F2000393
:1050680013605A689268126810470921FFF7EDBF6C
:105078007F2884BF0020704745F69462C0F2000282
:10508800515C45F61462C0F20002105C084070479B
:10509800A0F161011A2938BF20387047A0F14101F9
:1050A8001A2938BF203070477F2884BF00207047F6
:1050B80045F69462C0F20002515C45F61462C0F2F3
:1050C8000002105C08407047A0F161011A2938BF3E
:1050D80020387047A0F141011A2938BF20307047A5
:1050E800082938BF70470022C0E9002140F6A01106
:1050F800C2F20001086070470178002904BF00204F
:10510800704700214FF001324358C2FA53F304317B
:10511800002BF9D093FAA3F0B0FA80F001EBD0009D
:10512800043870475AB3844690EA01039B071FD19D
:10513800830707D011F8013B00F8013B013AF7D18A
:105148001CE08446203A09D32DE9F007B1E8F807B6
:10515800A0E8F807203AF9D2BDE8F0071C3205D4D8
:1051680051F8043B40F8043B043AF9D2043205D024
:1051780011F8013B00F8013B013AF9D1604670474C
:10518800085A000000000404AC5A000000000000A7
:10519800205B000000000000C8520000000003036C
:1051A800DC510000000000005C52000014000020E8
:1051B80050520000000000006C5200001C0000204B
:1051C800C4010020FC00002004010020040100208C
:0451D80018000000BB
:1051DC00D104000003050000F904000000000000E9
:1051EC00000000000338FDD870470000433A5C63B0
:1051FC006F6D706F6E656E74735C6C6962726172E8
:10520C006965735C6C6F675C7372635C6E72665F0E
:10521C006C6F675F6261636B656E645F75617274FE
:10522C002E630000FFFFFFFFFFFFFFFFFFFFFFFFED
:10523C00FFFFFFFF00000000000000000000D6018F
:10524C0006010000010800003508000029080000D4
:10525C007274745F6C6F675F6261636B656E640020
:10526C00756172745F6C6F675F6261636B656E64AE
:10527C0000000000433A5C636F6D706F6E656E7476
:10528C00735C6C69627261726965735C6C6F675C8C
:10529C007372635C6E72665F6C6F675F6465666188
:1052AC00756C745F6261636B656E64732E63000072
:1052BC00CC0100207F0000004C02002061707000C7
:1052CC00433A5C636F6D706F6E656E74735C6C6982
:1052DC00627261726965735C6C6F675C7372635C3C
:1052EC006E72665F6C6F675F66726F6E74656E640C
:1052FC002E6300004261636B656E647320666C758F
:10530C0073686564000000006572726F72000000C3
:10531C007761726E696E6700696E666F00000000DF
:10532C0064656275670000001B5B306D0000000057
:10533C001B5B313B33306D001B5B313B33316D00FC
:10534C001B5B313B33326D001B5B313B33336D00E8
:10535C001B5B313B33346D001B5B313B33356D00D4
:10536C001B5B313B33366D001B5B313B33376D00C0
:10537C0025734C6F67732064726F7070656420289E
:10538C0025642925730D0A00257300003C25733E06
:10539C002025733A200000000D0A00002025303231
:1053AC0078000000202020007C0000002563000015
:1053BC0020000000415353455254494F4E20464162
:1053CC00494C45442061742025733A257500000032
:1053DC004552524F52202575205B25735D20617418
:1053EC002025733A25750D0A50432061743A2030FC
:1053FC007825303878000000456E64206F66206593
:10540C0072726F72207265706F727400554E4B4ED3
:10541C004F574E204641554C54206174203078250E
:10542C0030385800433A5C636F6D706F6E656E7404
:10543C00735C6C69627261726965735C7574696CBA
:10544C005C6170705F7574696C5F706C6174666FB1
:10545C00726D2E6300000000433A5C636F6D706FD9
:10546C006E656E74735C6C69627261726965735C93
:10547C0062616C6C6F635C6E72665F62616C6C6FA8
:10548C00632E6300433A5C65787465726E616C5C84
:10549C00667072696E74665C6E72665F6670726955
:1054AC006E74662E63000000433A5C657874657216
:1054BC006E616C5C667072696E74665C6E72665F4F
:1054CC00667072696E74665F666F726D61742E635E
:1054DC000000000030313233343536373839414230
:1054EC0043444546433A5C636F6D706F6E656E74F2
:1054FC00735C6C69627261726965735C6D656D6F0A
:10550C00626A5C6E72665F6D656D6F626A2E6300B7
:10551C00556E6B6E6F776E206572726F7220636F53
:10552C00646500004E52465F535543434553530048
:10553C004E52465F4552524F525F5356435F48415D
:10554C004E444C45525F4D495353494E4700000061
:10555C004E52465F4552524F525F534F465444454C
:10556C00564943455F4E4F545F454E41424C45446E
:10557C00000000004E52465F4552524F525F494E5A
:10558C005445524E414C00004E52465F4552524FCC
:10559C00525F4E4F5F4D454D000000004E52465F2E
:1055AC004552524F525F4E4F545F464F554E44003A
:1055BC004E52465F4552524F525F4E4F545F5355B9
:1055CC0050504F52544544004E52465F4552524F34
:1055DC00525F494E56414C49445F504152414D0037
:1055EC004E52465F4552524F525F494E56414C49BE
:1055FC00445F5354415445004E52465F4552524FFE
:10560C00525F494E56414C49445F4C454E475448B5
:10561C00000000004E52465F4552524F525F494EB9
:10562C0056414C49445F464C414753004E52465FED
:10563C004552524F525F494E56414C49445F44418A
:10564C00544100004E52465F4552524F525F444106
:10565C0054415F53495A45004E52465F4552524F92
:10566C00525F54494D454F55540000004E52465F11
:10567C004552524F525F4E554C4C00004E52465FB5
:10568C004552524F525F464F5242494444454E0098
:10569C004E52465F4552524F525F494E56414C490D
:1056AC00445F4144445200004E52465F4552524FB3
:1056BC00525F4255535900004E52465F4552524F6D
:1056CC00525F4D4F44554C455F4E4F545F494E49C8
:1056DC005449414C495A4544000000004E52465F23
:1056EC004552524F525F4D555445585F494E49549F
:1056FC005F4641494C4544004E52465F4552524F1D
:10570C00525F4D555445585F4C4F434B5F46414992
:10571C004C4544004E52465F4552524F525F4D55D8
:10572C005445585F554E4C4F434B5F4641494C4591
:10573C00440000004E52465F4552524F525F4D5549
:10574C005445585F434F4E445F494E49545F464160
:10575C00494C4544000000004E52465F4552524FA2
:10576C00525F4D4F44554C455F414C524541445955
:10577C005F494E495449414C495A45440000000088
:10578C004E52465F4552524F525F53544F5241470F
:10579C00455F46554C4C00004E52465F4552524FA9
:1057AC00525F4150495F4E4F545F494D504C454DEF
:1057BC00454E5445440000004E52465F4552524FF0
:1057CC00525F464541545552455F4E4F545F454ECE
:1057DC0041424C45440000004E52465F4552524FE8
:1057EC00525F494F5F50454E44494E470000000000
:1057FC004E52465F4552524F525F4452565F545779
:10580C00495F4552525F4F56455252554E0000006B
:10581C004E52465F4552524F525F4452565F545758
:10582C00495F4552525F414E41434B004E52465FD9
:10583C004552524F525F4452565F5457495F45523E
:10584C00525F444E41434B004E52465F4552524FBD
:10585C00525F424C455F495053505F52585F504B1A
:10586C00545F5452554E4341544544004E52465F8A
:10587C004552524F525F424C455F495053505F4323
:10588C0048414E4E454C5F414C52454144595F4551
:10589C0058495354530000004E52465F4552524FE4
:1058AC00525F424C455F495053505F4C494E4B5FE1
:1058BC00444953434F4E4E45435445440000000069
:1058CC004E52465F4552524F525F424C455F4950D3
:1058DC0053505F504545525F52454A4543544544E9
:1058EC000000000000000000305500000100000026
:1058FC003C550000020000005C5500000300000055
:10590C0080550000040000009455000005000000C4
:10591C00A855000006000000BC5500000700000060
:10592C00D455000008000000EC55000009000000F0
:10593C00045600000A000000205600000B00000076
:10594C00385600000C000000505600000D000000FE
:10595C00645600000E000000785600000F00000096
:10596C0088560000100000009C560000110000003A
:10597C00B456000080000000C456000081000000F6
:10598C00E85600008200000004570000830000006D
:10599C0020570000840000004057000085000000E4
:1059AC0064570000860000008C5700009000000037
:1059BC00A457000091000000C457000092000000A2
:1059CC00E457000000820000FC5700000182000038
:1059DC001C580000028200003858000000840000AF
:1059EC005458000001840000785800000284000024
:1059FC00A458000003840000CC58000050525300FF
:105A0C00433A5C6D6F64756C65735C6E7266785C42
:105A1C00647269766572735C7372635C7072735CCA
:105A2C006E7266785F7072732E63000046756E63DB
:105A3C0074696F6E3A2025732C206572726F722018
:105A4C00636F64653A2025732E0000006E726678D1
:105A5C005F7072735F61637175697265000000003D
:105A6C00633A5C696E746567726174696F6E5C6EC3
:105A7C007266785C6E7266785F676C75652E68000E
:105A8C00633A5C6D6F64756C65735C6E7266785CA2
:105A9C0068616C5C6E72665F6770696F2E6800007F
:105AAC005541525400000000433A5C6D6F64756CB4
:105ABC0065735C6E7266785C647269766572735C31
:105ACC007372635C6E7266785F756172742E6300BC
